:020000040001F9
:10800000C83D0020158101002F8101003181010050
:108010000000000000000000000000000000000060
:10802000000000000000000000000000338101009B
:1080300000000000000000003581010037810100D0
:108040003981010039810100398101003981010044
:1080500039810100000000008186010039810100A2
:10806000719401008194010039810100398101007E
:108070003981010039810100398101003981010014
:108080003981010055920100B99101003981010047
:10809000ED92010039810100F59201003981010062
:1080A000398101003981010000000000000000005A
:1080B00000000000000000000000000000000000C0
:1080C0000348854600F004F9004800478DC40100CC
:1080D000C83D0020401E00BF00BF00BF00BF00BF62
:1080E00000BF00BF00BF00BF00BF00BF00BFF1D195
:1080F00070470000401E00BF00BF00BF00BF00BFB0
:1081000000BF00BF00BF00BF00BF00BF00BFF1D174
:10811000704700000321094802680A4302600848CA
:1081200002680A4302600748804707480047FEE7A5
:10813000FEE7FEE7FEE7FEE7FEE70000240500405D
:108140005405004029930100C180010030B50B4661
:10815000014600202022012409E00D46D5409D4221
:1081600005D31D469540491B2546954040191546A7
:10817000521E002DF1DC30BD70B5002425460028CC
:1081800001DA01244042002901DA01254942FFF7C2
:10819000DDFFAC4200D04042002C00D0494270BD0F
:1081A000F0B51FB486B000200090019002900698B0
:1081B000069980B204900798090C02040014114338
:1081C00007900027089D099806913E463C4603907B
:1081D0000398A9B20204000C039004982D0C1543D7
:1081E00048430021224600F063F8C719714110345A
:1081F0000E46402CECDB3846029A00F059F8009A03
:10820000019B801800905941029801911030029012
:108210004028CCDB00980BB0F0BD03460B439B0716
:1082200003D009E008C9121F08C0042AFAD203E0EB
:108230000B780370401C491C521EF9D27047D2B211
:1082400001E00270401C491EFBD270470022F6E795
:1082500010B513460A4604461946FFF7F0FF2046BC
:1082600010BD421C0178401C0029FBD1801A7047C8
:1082700030B504460020034600E05B1C934203D265
:10828000E05CCD5C401BF8D030BD0321001D401EDA
:10829000037812021A43491EF9D510467047034667
:1082A00003220870000A491C521EFAD5184670476E
:1082B00010B5202A04DB0146203A9140002010BD71
:1082C000914020239C1A0346E3401943904010BD7F
:1082D000064C0125064E05E0E36807CC2B430C3C19
:1082E00098471034B442F7D3FFF7EEFEA017020010
:1082F000C017020070B58C180578401C6B075B0F27
:1083000001D10378401C2A1106D10278401C03E0F9
:1083100006780E70401C491C5B1EF9D12B0705D452
:108320000023521E0DD40B70491CFAE70378401C41
:10833000CB1A921C03E01D780D70491C5B1C521E69
:10834000F9D5A142D8D3002070BD00007CB52148EA
:1083500000902021684681800121C18006F0DAF971
:10836000002803D00022114601F00EFB1A4968468E
:1083700006F04EFA002803D00022114601F004FB5B
:10838000164807F089FB154C207AFF280DD020797C
:10839000FF2809D111480C380021016110A109689A
:1083A00001610E4807F088FB7CBD0C4814210830A1
:1083B0000546FFF74BFF0C488179427908021043CC
:1083C00043BA0AA20BA1284601F062F82079FF28DF
:1083D000E0D0E6E73DE6010018200020A8250020B7
:1083E00031323334000000000C20002069746F74B7
:1083F00000000000257320232564000038B50E4CD2
:108400006078002815D0684606F0DAF800210828C0
:1084100010D000280DD1009800280AD161700748BB
:1084200007F037FB05491C31FFF739FF034807F018
:1084300043FB38BD0091F1E714200020A82500205F
:10844000F3B5A3B00F460026842102A8FFF7FEFE75
:1084500000256846019505702C46239800F096F893
:10846000002844D0862069460872012202A9239878
:1084700000F0AAF900283AD0012201A9239800F0BF
:108480009AF9002833D06846007900282FD1684631
:10849000057202A8395D0219641CE4B25170802C87
:1084A000F8D301468122239800F08EF900281ED0CF
:1084B0000221239800F058F8002818D0FA2000F084
:1084C00076F96946239800F095F801280FD1FF212D
:1084D000239800F049F8002809D0322000F067F90D
:1084E0006946239800F086F8012800D1012630461D
:1084F00025B0F0BD7FB506461AA0006800250390A0
:10850000304608380C460095019502956F2826D80C
:10851000012203A9304600F057F900281FD00A2293
:108520006946304600F047F9002818D068460088B0
:1085300020806846408860806846007920716846DF
:108540004079607168468079A0716846C079E071B1
:108550006846007A20726846407A60720125284693
:1085600004B070BDAA00000008B5034600201A46FA
:10857000083A00906F2A08D8862268460270417037
:1085800002226946184600F01FF908BDFEB50546EF
:1085900016A00068002402902846154E0838009462
:1085A00001946F281FD8012202A9284600F00CF977
:1085B000002818D005226946284600F0FCF800285B
:1085C00011D069460A7888784978000208436946DC
:1085D0000B79CD78190229439A2A04D1B04202D1ED
:1085E000012900D101242046FEBD00008F000000BB
:1085F000030A00007CB50546002001900090284643
:10860000022408380E466F2815D88620694608715E
:10861000012201A9284600F0D7F800280BD0042237
:108620006946284600F0C7F8002804D0684600785C
:10863000002802D0002420467CBD684680780028AF
:1086400003D06846C0783070F5E70124F3E70000F6
:1086500010B512C802680B1908389A420AD1074AA5
:1086600052688360914201D8501A01E0501A401EAE
:10867000844201D8002010BD201A10BD28210020FE
:10868000F8B50024FF250135012627460094284629
:1086900005F07AFE002808D034484068304204D003
:1086A000334800212818344301602D1D76007F1CBB
:1086B000ADB2042FEBD3FF207D3005F065FE00281E
:1086C00007D02C4800210160400704432A48006974
:1086D00000902A4F200712D00126002526420AD0FA
:1086E0002748AA00111808690969C004C00E890347
:1086F000BA58890F904776006D1C042DEED3002CDC
:1087000030DA00241D4E0021301940304156491CFA
:1087100025D00778BD06AD0E284602F0CFF98000BF
:108720003658002E1BD0BF090121A940154AA800C8
:1087300080180068009A8003800F114202D002283E
:1087400002D00CE003280AD1032F05D102280AD059
:108750000221284605F0F8FD39462846B047641C3A
:10876000042CCFD3F8BD0321F3E7000000630040E1
:10877000006000407C61004000050050142700208C
:10878000006500400007005070B596B004461546DD
:108790000E46684604F0CEF82A463146684604F094
:1087A00059F82146684604F097F816B070BD10B528
:1087B00005F03AF910BD10B500F04EF8002801D0D0
:1087C000002010BD012010BD10B500F062F8002897
:1087D00001D0002010BD012010BD0000F1B5032123
:1087E000062005F096FD00261A4F8025344638698C
:1087F0008009C007C00F00D02E436D08052005F08A
:10880000BBFD0020401EFDD2052005F0ADFD641C1F
:10881000E4B2082CEBD3062005F08CFD009800286C
:1088200003D0062005F0A8FD02E0062005F09CFD1F
:108830000120401EFDD2052005F09EFD052005F01B
:1088400093FD062005F098FD0420401EFDD2F0B2F5
:10885000F8BD00000005005070B515460E460A240C
:1088600000F064F800F062F86F2000F087F800284C
:1088700005D0641E2406240EF4D1012070BD2946C3
:10888000304600F041F800F028F800F066F80020CB
:1088900070BDF8B515460E460A24470000F046F8AC
:1088A000F8B200F06BF8002805D0641E2406240EF0
:1088B000F4D10120F8BD002404E0305D00F05EF842
:1088C000641CE4B2AC42F8D300F047F80020F8BDD5
:1088D00010B5052005F02EFD10BD10B5062005F0E1
:1088E00029FD062005F040FD0220401EFDD2052096
:1088F00005F042FD052005F037FD062005F03CFDA2
:108900000420401EFDD210BD70B5002406464D1E49
:10891000AC4201DA002000E00120FFF75FFF305594
:10892000641CE4B2AC42F3DD002070BD10B506203B
:1089300005F000FD062005F01FFD052005F01CFDDB
:108940000420401EFDD2062005F00EFD0820401E2A
:10895000FDD2052005F008FD10BD10B5062005F07C
:10896000E9FC062005F000FD052005F005FD0A20C4
:10897000401EFDD2062005F0FFFC10BD70B5064676
:10898000062005F0D7FC80250024354203D00620C0
:1089900005F0F2FC02E0062005F0E6FC6D0805207B
:1089A00005F0EAFC052005F0DFFC641CE4B2082CAD
:1089B000EBD30321062005F0ACFC09480069400612
:1089C000C40F0121491EFDD2052005F0D5FC05206C
:1089D00005F0CAFC0421491EFDD2204670BD0000EE
:1089E0000005005070B515460278044605201300B6
:1089F00000F062FD061A100D132C041ACA2D2FD197
:108A000002202070002060706071E07028E0257105
:108A1000012009E06570032006E0E678627896425E
:108A200002D2A3789A4201D9207019E060794019E6
:108A30006071C81CFFF729FC8555E078401CC0B266
:108A4000E070617888420BD10420EDE720706079F6
:108A5000A84205D16078887020794870002070BDE8
:108A6000FF2070BDF0B505460026807889B00C4621
:108A700037460090042834D304227D4901A8FFF72B
:108A8000CCFBE81CFFF701FC009A011D02A8121F95
:108A9000FFF7C3FBA97801A800F03AFA0090E81CA0
:108AA000FFF7F3FB01780A06417809041143827845
:108AB00012020A43C17800981143884205D1012768
:108AC00004226B4905A8FFF7A8FB697869480429C7
:108AD00043D009DC01290ED0022910D003297AD114
:108AE0007DE0002009B0F0BD052910D0062975D021
:108AF000102970D15EE0002F5CD155265AE0002F7E
:108B0000FBD05D48012241681143416063E0002FC2
:108B1000F3D0A978142925D2407B012807D0012061
:108B20000346642200901146524800F0DAFA504899
:108B30001421001D0746FFF789FBE81CFFF7A5FB82
:108B4000AA78011D3846121FFFF767FB4B49012029
:108B50000870072000F08EFB2CE0002FCDD0A97804
:108B60000C2901D0962625E0407B012807D0012062
:108B700003466422009011463E4800F0B2FA0020FD
:108B80000190029003900490E81CFFF77EFB021D09
:108B900005A901A800F0F7F9354F04213F1F381D42
:108BA000FFF754FB042201A9381DFFF736FB3349B8
:108BB00001200870CA202070687860700120A070C1
:108BC000E01CFFF762FB0670E01CFFF75EFBA1787C
:108BD00000F092F9E0710020687082E739E0002F20
:108BE0008BD001200346009064223221214800F0FE
:108BF00078FAE81CFFF749FB0179214C01290DD0D7
:108C0000022913D003291BD00429E4D141791D483E
:108C100000F07EFA0146092040020DE041791A4831
:108C200000F076FA01468120C00105E0417917483D
:108C300000F06EFA01461648002908D0A060CAE785
:108C40004179144800F064FA01461348F4E7E06003
:108C5000C1E7CA202070062060700726A670E01CBD
:108C6000FFF713FB32460DA1FFF7D7FAACE7000080
:108C7000AC25002054250020FC20002015200020D9
:108C8000000500500C3F0020003F0020043F002062
:108C900008000001083F002000018000312E302E26
:108CA000302E3700F8B50746002588780C462E464A
:108CB00000281FD02178384600F0B8FAA17838464D
:108CC00000F0B4FA6178384600F0B0FA08E0E01C31
:108CD000FFF7DBFA415D384600F0A8FA6D1CEDB2F3
:108CE000A078A842F3D8E179384600F09FFA002036
:108CF000A0703046F8BD0000FFB5044681B01E46A6
:108D00000F46C01CFFF7C1FA054604221449FFF7BD
:108D100084FA3246281D0399FFF77FFA311D284651
:108D200000F0F6F8009068460078287068464078B1
:108D3000687068468078A8706846C078E870CA2075
:108D40002070361D6770F5B2A570E01CFFF79DFA24
:108D5000294600F0D1F8E071002005B0F0BD000018
:108D6000AC2500200849024610B508460E38FFF72A
:108D700039FE002806D104480E388278811D0E3055
:108D8000FFF770FE10BD000012210020F0B585B085
:108D900036493748FFF786FF344935481031FFF729
:108DA00081FF324C04260E3C60680227C10700296F
:108DB00021D04008400060602E48006800F054F95F
:108DC000694608702C48006800F04EF96946487002
:108DD0002A48006800F048F9694688702848006809
:108DE00000F042F96946C870204633466A460221BF
:108DF0001E30FFF781FF6068810722D5B8436060AD
:108E00001C480025006800F02FF9002800D001253B
:108E10001948006800F028F9002800D03D431748A1
:108E2000006800F021F9002800D03543144800689C
:108E300000F01AF9002801D008200543284604F064
:108E400029FA207802280ED10E4D0421281DFFF7A3
:108E5000FDF904220CA1281DFFF7DFF90C490120C0
:108E600008700020207005B0F0BD00000A2100202D
:108E7000142A0020003F0020043F0020083F00206B
:108E80000C3F0020A82500203132333400000000C0
:108E90001520002010B508211548FFF7D7F9144810
:108EA00008210830FFF7D2F9114808211030FFF7E8
:108EB000CDF9104940220846103800F0A7F90C48B7
:108EC0000521801F01702021817001460948093168
:108ED0007038FFF7E4F9064906480B315038FFF7C0
:108EE000DEF90349034813313038FFF7D8F910BDD4
:108EF0000A210020242A0020034610B50020024643
:108F000003E09C5C2018C0B2521C8A42F9D310BD09
:108F100030B5044687B000200D460090142101A80A
:108F2000FFF794F92A46214601A8FFF72DFC684671
:108F300001794079414068468279C0794240514088
:108F400068460170017A407A41406846827AC07A68
:108F50004240514068464170017B407B4140684639
:108F6000827BC07B4240514068468170017C407CDE
:108F700041406846827CC07C424051406846C17096
:108F8000009807B030BD70B588B00D46044616464F
:108F90001C216846FFF75AF91C216846FFF756F96D
:108FA000042229466846FFF738F90422294601A819
:108FB000FFF733F90422294602A8FFF72EF904220D
:108FC000294603A8FFF729F90422294604A8FFF738
:108FD00024F90422294605A8FFF71FF9684600F086
:108FE0002FFA2146304600F0EFF908B070BD10B5F9
:108FF0000024046044600170836042708270447198
:10900000C471847110BD30B40022002904D0C1782D
:10901000491CC170027103E0C2700179491C0171E1
:10902000C478017801238C4202D38370C27004E0BB
:1090300004798C4201D30271827081784278914226
:1090400010D04371002909D0C279521CC2714170FD
:109050008268002A06D030BC084610478279521C2C
:109060008271F4E730BC70470349884201D1012086
:109070007047002070470000A5A5A5A5074A016814
:10908000914204D0D343994201D0036003E091425E
:1090900001D101207047002070470000A5A5A5A5BB
:1090A000437B0022012B19D183688B4203D9591AC3
:1090B000816001D00EE082600169002908D0491E5C
:1090C000016103684168C91881600121017301E0F1
:1090D00042730273836841688B4200D80273007B3D
:1090E000704710B5029C06C0002101604371846086
:1090F000C46010BD054902688A4203D1C9430160BA
:10910000002070470160012070470000A5A5A5A5BB
:1091100010B50A4A002901D0026002E00749C9439C
:109120000160074901240B6823430B6000689042EB
:1091300001D1012010BD002010BD0000A5A5A5A5EE
:1091400000210020034A526802604160511881608A
:1091500070470000282100208307FF22DB0E9A4081
:109160008907090E994000280BDA0007000F08381C
:10917000830808489B001818C36993430B43C361D5
:109180007047830804489B001B18186890430843E5
:109190001860704700ED00E000E400E0BFF34F8F7F
:1091A00004490348C860BFF34F8F00BFFDE70000CC
:1091B0000400FA0500ED00E010B5084802F004F9DB
:1091C000044607F001F9002804D00448B83002F042
:1091D000FBF80443002CF0D110BD0000642A0020ED
:1091E000426803689A4202D10020C0437047436836
:1091F000C268D25C0A704168491C4160416882685B
:10920000914201D30021416000207047002803D023
:10921000002901D0022A02D20020C0437047C16059
:1092200000210160416082600846704710B5026805
:109230008368521C934200D800224368934202D1B3
:109240000020C04310BD0468C368195502600020A7
:1092500010BD000010B50649002008604860886015
:10926000C860034940390860486006F067FF10BDD8
:109270004011014010B5044908707D21C900034820
:10928000FFF760FF10BD0000142000209C25002087
:1092900070B5114C04252078030000F00DF9081476
:1092A0001A0D0F150B08051A7D21C90007E07D2155
:1092B000090104E0094902E0094900E009490A48B6
:1092C000FFF740FF257070BD0748FFF7C1F9002880
:1092D000F9D1FFF763FF000014200020881300007D
:1092E00010270000307500009C25002010B506F006
:1092F00087FD10BD10B507484068002807D080479B
:10930000002803D00022114600F03EFB10BD02F001
:1093100025FE10BDE8200020024841680A31416066
:10932000704700002821002010B502F0E7FE002859
:1093300005D01F491D484860C8131E4988611E4852
:10934000018CC9B201290BD1828C120708D1028D80
:109350001206120F042A03D1828D1206120F0AD0B0
:10936000012921D1818C09071ED1018D0906090F20
:109370000A2904D007E0114A01219160F5E7828DA6
:109380001206120F05D00D290ED1808D0006000F98
:109390000AD10B480168012904D00A49016001681B
:1093A0000129FCD1C021416110BD0000DFFF07C0D1
:1093B00000050040006C0040C00F00F000060040B7
:1093C00000EC0640759300007CB50C460546FEF7A0
:1093D0005CFF00BA000AE978000208430090281DEB
:1093E000FEF753FF00BA000AE97900020843019032
:1093F0001149684601F024FE0F496846803101F0AA
:109400001FFE0E49684601F01BFE0098E0700098B0
:10941000000AA0700098000C60700098000E207088
:109420000198E0710198000AA0710198000C607128
:109430000198000E20717CBD3428002034290020C2
:1094400010B50446084A012101F0E2FE064A204612
:10945000803A0021083001F0DBFE2046034A01215A
:10946000103001F0D5FE10BD342900203428002032
:1094700010B50021014804F0BDFE10BD0080004081
:1094800010B50121014804F0B5FE10BD0090004068
:109490000FB410B504A9074B02AA039800F028F8EE
:1094A000044602A9002000F009F9204610BC08BCBF
:1094B00004B01847BD96010030B47446641E257888
:1094C000641CAB4200D21D46635D5B00E31830BCF8
:1094D000184702E008C8121F08C1002AFAD17047D5
:1094E0007047002001E001C1121F002AFBD1704724
:1094F000FFB58DB00F460546002606E025280AD0A8
:10950000109A0F9990476D1C761C28780028F5D189
:10951000304611B0F0BD00240121674A009400E0FC
:1095200004436D1C2B780846203B98401042F7D12D
:1095300028782E2815D10420044368786D1C2A2829
:109540000AD101CF6D1C00900BE000990A22514313
:10955000303940186D1C00902878014630390929AF
:10956000F3D92878692843D006DC0028D0D06328B6
:109570000BD0642804D13BE073280FD075284CD061
:10958000109A0F999047761C94E0387869460872D3
:109590000020487202A80190012003E03868019081
:1095A0000020C0433F1D61070CD5002400E0641C6F
:1095B00000998C420FDA8442F9DB0199095D002998
:1095C000F5D108E0002400E0641C8442FCDB019932
:1095D000095D0029F8D1361907E001980199007852
:1095E000491C0191109A0F999047641EF5D261E0D1
:1095F0000A20019001CF002802DA40422D2102E02A
:10960000210504D52B216A461172012103E0E107EF
:1096100001D02021F7E70C9104E00A20019001CF4E
:1096200000210C910BA90B9108E00199FEF78EFD2A
:109630000A460B993032491E0B910A700028F4D16A
:109640000B9803A9081A20300190600701D50098F3
:1096500001E0012000900199884203DD0146019854
:10966000081A00E000200024009006E002A8109AEA
:10967000005D0F999047641C761C0C988442F5DBC2
:1096800004E0109A30200F999047761C0099481EEC
:1096900000900029F5DC08E00B980B990078491C34
:1096A0000B91109A0F999047761C0199481E0190D2
:1096B0000029F1DC6D1C28E7092801000A68531C09
:1096C0000B6010707047000030B50C4A116800291B
:1096D00005D004680B68E51A094B9D4203D9016166
:1096E000106030BD11460A69002A03D015682D1B91
:1096F0009D42F7D80261086130BD0000842100203E
:10970000FFFFFF7FF7B584B0002516880746158058
:10971000406B1446002813D003780598032E51D3CC
:109720000221017021881122491C89B221804254F2
:109730002188491C89B2218043542088401C208004
:10974000386B00281DD00546208805990246123244
:10975000B24237D811220A5420881022401C80B20D
:1097600020800A542088401C20800F202A5C2388F7
:10977000401ECA54228840B2521C22800028F5DACA
:109780000025384620300290807B002806D03346E2
:109790002246059902F004FD050014D10298407B91
:1097A000002806D032462146059800F033FF050018
:1097B00009D1B878002823D0059886462088001D56
:1097C000B04202D90C2007B0F0BD684679DF00280E
:1097D000F9D1218803207246505420881921401C59
:1097E00080B22080115420887146401C80B22080B5
:1097F00041186846008806F099FF218840182080AB
:10980000F878002817D0218803230A46FB56C91C84
:109810000598B142D6D80221815421880122491CE1
:1098200089B2218042542188491C89B22180435445
:109830002088401C20807868002817D021880023C9
:10984000C3560A46C91C0598B142BBD802218154AF
:1098500021880A22491C89B2218042542188491C4E
:1098600089B2218043542088401C208038890028F8
:109870000AD0009438460196062202210830059B42
:1098800006F0DDFF05009ED1388A00280AD000943A
:1098900038460196072203211030059B06F0CFFFC2
:1098A000050090D1388B00280AD0009438460196E4
:1098B000152214211830059B06F0C1FF050082D146
:1098C000386A002806D033462246059901F086FA08
:1098D0000500D8D1786A002806D03346224605997B
:1098E00002F084FF0500CED10298007B002807D04B
:1098F000334622463846059905F091FE0500C2D14F
:109900003878002807D0334622463846059904F0B7
:109910003BF80500B7D1284655E7000030B5A7B0A1
:10992000382101A8FEF792FC02216846017100244B
:1099300084710521C17138210FA8FEF787FC01252C
:1099400010A885810E48149024211DA8FEF77EFCE6
:1099500018A8047520A8057080202190B4202290BA
:10996000084B1DAA0FA9009401A800F005FC0028CF
:1099700003D00022114600F007F827B030BD0000E8
:109980000820002041E40100BFF34F8F0449034841
:10999000C860BFF34F8F00BFFDE700000400FA0569
:1099A00000ED00E070B50024002903D08A070025EF
:1099B000002A01D0072070BD094A0B465160107083
:1099C00018215570414318469560FEF73FFC04F09E
:1099D00093F8002802D104F065F80446204670BDD3
:1099E00078200020F8B50C460E78896802290DD041
:1099F0000C225143074A555807490246096A00910B
:109A00002046314608302369A847F8BD0249243171
:109A10000D68F1E728280020A020002010B5064995
:109A200014230A785A435118091DFFF7DBFF04205D
:109A300005F0B0FE10BD00005C27002070B50546A3
:109A400040680C4E4179715C0124FF290ED0FE293B
:109A50000DD004F007FB0146686833464079820068
:109A600008339A58914202D1FF21315400242046F4
:109A700070BD00008820002070B5044600680D46C7
:109A8000008B642180B25043FEF760FB82B229460E
:109A9000204600F001F870BDF7B50546046801984E
:109AA0000C21484307192320005D1646022801D0E7
:109AB0000820FEBD7868B04206D1E169002945D092
:109AC00068684079884741E02846FFF7B7FF0028DB
:109AD00001D01120FEBD69681D4A4979FE2050540D
:109AE0007968002902D0A069814210D3002E02D0EB
:109AF000A069B04205D832462846019904F0DCFF3F
:109B000014E032462846019905F010F80EE0002EC8
:109B100001D0B04205D832462846019905F08EF8AA
:109B200004E032462846019905F00CF92868C0691E
:109B300000280BD06868064A407902214000921C38
:109B4000821801981154686804F0C2FA0020FEBD22
:109B500088200020FFB581B006460768029D0C20D2
:109B600045432320C05DEC19002802D0082005B031
:109B7000F0BD002060600498A0722C48006800903E
:109B8000284631680A30085C002808D00020694661
:109B90004870039803F0B8FF002816D101E00120B7
:109BA000F5E7039878510127039938468840049ACD
:109BB0001F49002A01D0C86000E0886000256019B4
:109BC000083004F047F8002801D00420CFE76D1CCE
:109BD000EDB2022DF3D3207A04F0A4F8607A04F0F9
:109BE000A1F8206803F0DCFF05467068029904F0D4
:109BF0005FFA0146207A2A4604F074F8206803F0E0
:109C0000CFFF05460221706804F052FA0146607ADF
:109C10002A4604F067F8E7727168064A497900201D
:109C200049008A1802995054A1E70000100E020062
:109C3000000500508A200020F8B50768054600247A
:109C40006A68204652790C2148435300174AC619C6
:109C500000219A181155F17A00290DD029680A308F
:109C6000085C002820D00021306803F0BBFF30687A
:109C700003F0A0FF00207060641C022CE0D3696830
:109C80000A4AFF204979921E5054686801210068F1
:109C900004F060FC686804F0F2F9686804F034FAD3
:109CA00002202037F870F8BD0121DDE78A2000206E
:109CB000F7B588B00E00054609D02C682046203044
:109CC0000690C078002804D008200BB0F0BD0B200F
:109CD000FBE704F0BBF9002803D0852801D004205D
:109CE000F3E703F009FF002805D103F0DBFE0028AD
:109CF00001D00320E9E70698FF2101700698417022
:109D000006988170002007460C2141430B19DF7231
:109D1000FF221A725A720022D243401CC0B2625013
:109D20000228F1D30027E019203003F093FF002828
:109D300009D17F1CFFB2022FF5D32046223004F058
:109D4000E5F8002803D0284604F03AFEC7E70027CC
:109D5000B8003258501C12D0F019037A3946284600
:109D6000FFF7F8FE0490002804D0284604F028FEEF
:109D70000498AAE7002239462846FFF78DFE7F1C8B
:109D8000FFB2022FE4D300200922224B316901E007
:109D90004908401C994201D99042F9D31E4A5168A2
:109DA0009268029201916946087168681B4A40797D
:109DB000029001A9686804F0C9F9070004D0284698
:109DC00004F0FEFD384680E73169686804F068FAFF
:109DD0000646A061686804F052F901270097042341
:109DE00032460221686804F099F90221686804F09B
:109DF00066F90A98E061686809494079084A800074
:109E00000D506968FF204979103A50540698C77080
:109E100000205AE7FF0F0000100E020061EA010067
:109E200098200020094B9B68002B07D0002A07D000
:109E3000002805D00068037C002B03D00820704761
:109E4000072070474174426100207047C8200020FD
:109E5000FFB59007002581B014460E46002832D188
:109E60001B4F002C31D005F041FB04987861032092
:109E7000387033461821224600204B43BC6018340A
:109E8000C10089180D704D708E704C601C19401CFB
:109E90000328F5DBFD607D7001240E48BD702405AC
:109EA000046003211420FFF757F90B4804600B4CA2
:109EB0000198A06003211120FFF74EF96068386116
:109EC000002005B0F0BD0720FBE7BD60FBE7000008
:109ED000C820002080E200E000E100E00015014021
:109EE000FEB50D461B4917468968044600292AD04D
:109EF000002C28D0052D01D20720FEBD6069002866
:109F000021D0607C012820D0002606F05BFCC00038
:109F10001049019089684018694606F07DFC0028C8
:109F200015D0012101700C49446049680830E2C035
:109F3000084901988968411868460078487005F01A
:109F4000A1FF0020FEBD0820FEBD2E46DDE7042057
:109F5000FEBD0000C820002000150140F8B5134DDB
:109F60000446A96800291CD0002C1AD0606900287A
:109F700017D00026267406F025FCC700A86869469D
:109F8000381806F049FC00280DD002210170446009
:109F9000A868391868460078487005F073FF3046A5
:109FA000F8BD0820F8BD0420F8BD0000C82000203E
:109FB00010B50D4C00220B492068FFF791FF0028D7
:109FC00003D000221146FFF7DFFCFF2100224931B8
:109FD000E068FFF785FF002803D000221146FFF755
:109FE000D3FC10BD66060000380D0200800B01D0C6
:109FF000002070470120704710B502780446032006
:10A00000C00318491300FFF757FA05081E08121875
:10A0100007006168A068884710BD6268101A88420E
:10A02000F7D3002211461020FFF7AEFCF1E7237CA6
:10A03000241D07CC05F08CFD10BDE279A179A08824
:10A0400001F0CAFC10BD6268101A884204D30022D5
:10A0500011461020FFF798FC6268E168A0689047FD
:10A0600010BD00000180FE1F70B5054605F044FFDD
:10A070000446284605F016FA2846FFF725FBEFF3BD
:10A080001080C207D20F72B606494868401E486069
:10A09000002A00D162B6204601F0DAFA204605F027
:10A0A0005DFB70BD8421002030B589B0054603F00A
:10A0B000FFFA0446002069460870002C22D060791F
:10A0C000217900020843694606F064FD002819D191
:10A0D00068460078002815D004216846017160792F
:10A0E000227901021143684601812046083003901D
:10A0F00021786846C91F017405F0FEFE059001A88D
:10A1000005F0D0F8284603F077FB09B030BDF0B574
:10A110000C4693B01F216A461180072600279180C4
:10A12000002809D0C17849070DD502A9FFF7EAFA3E
:10A13000002809D102AD01E000251780002C0ED0C7
:10A14000E078002802D0304613B0F0BD01AA0AA979
:10A150002046FFF7D7FA0028F6D10AAA02E068469F
:10A160000022878068468088C3B268460088C1B2F2
:10A17000284672DFE8E7000070B50D4604991646E0
:10A18000040042D0002E40D0424800224271C360F9
:10A190000161242231464048FEF73FF800F0D0F834
:10A1A0003D49343108461038016020318160382142
:10A1B0005C38FEF74BF83848217838380170A178C0
:10A1C0008170E178C1706178417062692169426192
:10A1D0000161E268A168C26081600146E369A26929
:10A1E000CB618A61616A002919D00146AC3102460F
:10A1F000B83241628A60636A1B880B80616A436A75
:10A20000898899800021436A06E00E2070BD666A45
:10A21000B668765C5654491C9E888E42F7D8A16A6F
:10A2200000291CD01C4AAC3211460C398A6081626C
:10A23000A36A9B888B80A16A836A098819800021A0
:10A24000836A04E0A66AB668765C5654491C9E8808
:10A250008E42F7D82C210A5D0F4918390A73216AFA
:10A26000002909D00B4914310162226A52884A80C0
:10A27000216A026A098811806168002904D00549B1
:10A28000891D416061684160034829463838FFF7FD
:10A290003EFF70BD282000200C26002010B502884B
:10A2A0001A4C102A17D00021112A17D0192A11D1BF
:10A2B000807900280ED1607901281BD002281FD098
:10A2C00003281FD0042805D12171E2680846002A1E
:10A2D00000D0904710BD8088208110BD61708088BB
:10A2E00021898842F9D1012005E021690029F4D0B3
:10A2F000884710BD022000F02BF80028F5D110BDD2
:10A300000320F8E7032020710420F4E72820002030
:10A3100010B5022801D003280ED1084C207800285F
:10A320000AD000202070607900F012F8002803D0D5
:10A330002169002900D0884710BD00002820002096
:10A3400010B507210148FDF781FF10BD4020002016
:10A35000F0B5754C87B06071002606A8069604F02B
:10A360002FF90127082806D000286FD10698002869
:10A3700002D02770D4E00696FFF7E2FF6B4D6878B5
:10A38000002802D06079012805D0A87800280AD0DA
:10A390006079022807D1E168002903D0E77008201E
:10A3A000884700E0E6706079012808D168780028C5
:10A3B00009D05D48193004F0E9F8002803D060792D
:10A3C000022802D00CE002206071A878002805D095
:10A3D0005548193004F0DAF8002801D103206071E3
:10A3E000287B002804D16079032801D10420607102
:10A3F000287E002804D16079042801D16671267175
:10A40000E16800290AD06079032801D0042805D129
:10A410002878002802D06078002818D0A67018216B
:10A420006846FDF713FF68460670019606720396AC
:10A43000607901280FD0022816D03C4E24363746CA
:10A440005C3F03281CD004285ED13BE069E0A77084
:10A4500007208847E3E734481830019068460770C2
:10A4600046820682277152E02F48183001906846D4
:10A47000077029894182A98801820220207146E063
:10A48000A88A69464882288A08822848243006F02B
:10A490004BFC002805D02878002802D060780028DE
:10A4A00001D003202FE002206946087204200396A1
:10A4B000F8701E4800213838FFF729FE002830D1F7
:10A4C000052020E0A88B69460882288C488217481E
:10A4D000243006F029FC002805D02878002802D076
:10A4E0006078002801D004200DE00220694608723F
:10A4F00004200396F8700D4800213838FFF707FE56
:10A5000000280ED1062020716079002803D068460B
:10A5100073DF002805D1E168002901D02079884740
:10A52000002007B0F0BD0000282000200C260020ED
:10A5300070B5054601461C220E48FDF76EFE0E4C16
:10A54000002626702968002906D00822201DFDF764
:10A5500064FE201D7ADF02E00748001D7BDF002833
:10A5600007D1401E60806670044A00210448FFF74E
:10A5700059FC70BDF8260020482000206107020029
:10A58000EC0D0200F8B5214C028800271E4DE6892B
:10A59000102A15D01E49112A21D0122A2DD0502A56
:10A5A0001CD1C288801DB24218D1028B022A15D15B
:10A5B000C27E837E10021843C007C00F0CD112E088
:10A5C0008188698001461048082216310C30FDF759
:10A5D00024FE6F70002E01D100F04AFCF8BD00206F
:10A5E000C04368806F700868FFF7B8FC0028F5D09A
:10A5F000A1690029F2D08847F8BD811D02480822D0
:10A600000C30FDF70AFEE7E748200020F82600207E
:10A61000EC0D02007CB5054608880C4609309042D6
:10A6200001D90C207CBD684671DF0028FAD1218851
:10A630000820685420881B21401C80B220802954A7
:10A64000208800A9401C80B22080401906220131D8
:10A65000FDF7E3FD20886946801D80B220800978DF
:10A66000002900D0012129542088401C208000208E
:10A670007CBD000010B50446FFF784FF2146064864
:10A6800000F040F8204603F0E9FE2046FFF706FE02
:10A69000204604F0E9FD10BDCC24002030B5184B55
:10A6A0000D4604000FCB85B003936B4607C324D03F
:10A6B000002D22D00020C043A0822868A061002085
:10A6C000A0752146684663DF002814D121786846CA
:10A6D000817401210182A21C04A90120A0DF0028AD
:10A6E00009D12946204604F04BFF002803D1294612
:10A6F000204605F0DBFF05B030BD0E20FBE7000073
:10A70000F00D020000281ED000291CD00A88102A53
:10A7100014D0112A14D0502A15D1CA88038A891D51
:10A720009A4202D10B8B022B0ED083889A420AD117
:10A730008369002B07D00A8B1A311847898801E0FA
:10A740000021C94381827047CA7E8B7E1102194362
:10A75000C907C90F00D0012181757047F0B51B4EA4
:10A760000024B07887B02746002807D01848FDF7A6
:10A770006FFF00280AD0B07800281DD1002505A958
:10A780001448FEF72DFD002802D00AE0B770F5E767
:10A790006846017D0155641C6D1CADB2E4B2142DF8
:10A7A000EDD3002C08D00A48224669460C3000F050
:10A7B00013F8002802D0B77007B0F0BD0120B070C8
:10A7C000FF21F5310248FEF7BDFCF5E7002000202F
:10A7D000C0240020142A002007B584B000280DD022
:10A7E000828A114B9A420BD0827D002A08D06A4699
:10A7F000128B142A06D9072007B000BD0E20FBE7F4
:10A800000820F9E7002200920192029203928289C5
:10A810006B461A80039106A9029101219970808AE2
:10A820006946A6DFE8E70000FFFF00001CB5002333
:10A83000482215490D2004F0E1FF002803D0002232
:10A840001146FFF7A1F800200090694601900870BA
:10A85000684660DF002803D000221146FFF794F815
:10A860000A4804F0C1FF002803D000221146FFF778
:10A870008BF8074804F0DAFF002803D000221146C5
:10A88000FFF782F81CBD00008022002075A60100A1
:10A890007DFA010000B585B0162003F043FD1422B7
:10A8A0000B496846FDF7B9FC012069464872084823
:10A8B000084A8838FFF7FCF9002803D00022114627
:10A8C000FFF762F802488838FFF7B6F905B000BD17
:10A8D000D00D020055EA010038B5002834D001241B
:10A8E0002346322219491A480094FEF7FAFB194808
:10A8F00002220168012311430160642232211648BB
:10A900000094FEF7EEFB1548FEF7F4FB8121C90128
:10A91000134A002801D0916000E0D160114C6068BA
:10A92000FFF71CFB002803D000221146FFF72CF88C
:10A930000121002289036068FFF7D2FA002803D0C2
:10A9400000221146FFF720F838BD0000B80B0000C8
:10A950003C2500200021002054250020003F00203D
:10A9600000050050380D020038B5002833D001240E
:10A9700023463222184919480094FEF7B2FB1848C2
:10A98000022201680123114301606422322115482B
:10A990000094FEF7A6FB1448FEF7ACFB1349144ADB
:10A9A000002801D0916000E0D160124CA068FFF750
:10A9B000D5FA002803D000221146FEF7E5FF012159
:10A9C00000228903A068FFF78BFA002803D0002239
:10A9D0001146FEF7D9FF38BDB80B00003C2500201A
:10A9E0000021002054250020043F00200800000121
:10A9F00000050050380D020038B500281BD0012496
:10AA0000234632220D490E480094FEF76AFB0D489A
:10AA100002220168012311430160642232210A48A5
:10AA20000094FEF75EFB0948FEF764FB0849094AFB
:10AA3000002801D0916038BDD16038BDB80B00004E
:10AA40003C2500200021002054250020083F002044
:10AA500000018000000500500022D2438300044919
:10AA60000428CA5002D3081820300277704700002B
:10AA700014270020F0B50025ED43002A02D0002362
:10AA8000042601E0042308260B4C04E09F00E7594C
:10AA90007F1C04D05B1CB342F8D32846F0BD2618B7
:10AAA0005DB2203635709E00A151002AF5D1E11823
:10AAB00020310877F1E70000142700200249091827
:10AAC00020200856704700001427002070B5044667
:10AAD0000D46001DFDF7D9FB1249281A884220D8DF
:10AAE000204605F00DFD00281BD020460830064604
:10AAF000FDF7CBFB01460C48C26880684243914297
:10AB000002D24800314601E031461046FDF7C7FB4E
:10AB1000002020733046FDF7B8FB4019211DFDF7DA
:10AB2000BEFB70BDFFFFFF7FE4210020F8B53E486B
:10AB30001422017851430C18E0680C2148433A492B
:10AB40002769CC314018058941890091241D466848
:10AB500003F0DAFD01463846FDF7F8FA002932D055
:10AB600000200099A2884D436188AE198918CD193B
:10AB700000222E4900280A6109D003F0C5FD618832
:10AB8000884222D0B54202D1A08800281DD0A068FA
:10AB900002281AD003F0B8FDA188CA190146104650
:10ABA000FDF7D4FA214C8808E06003F0ADFD0146C2
:10ABB0002846FDF7CBFA002911D00020B5422FD04E
:10ABC00000280ED02CE00120CBE703F09DFD0146CC
:10ABD0003846FDF7BBFA15494861032021E0012002
:10ABE000ECE7ADB2B7B203F08FFD01463846FDF792
:10ABF000ADFA064603F088FD01462846FDF7A6FAA1
:10AC0000864201D1781B09E003F07EFD064603F081
:10AC10007BFD01462846FDF799FA701A80082061ED
:10AC2000022004F0B7FDF8BD5C270020A020002022
:10AC300010B50748142201785143081800790428F8
:10AC400002D000F059F810BD012004F0A3FD10BDA2
:10AC50005C27002010B50B481422017851430818D6
:10AC6000094AC18811620079012806D0032801D061
:10AC7000042801D1FFF75AFF10BD012004F08AFD1E
:10AC800010BD00005C270020A020002014225043AB
:10AC9000054A002180180171C18001220161C26052
:10ACA00041610181704700005C270020F8B5104C1D
:10ACB000069E65780A2D19D027787D190A2D00D3B4
:10ACC0000A3D14277D432D1928716A6103C9296142
:10ACD000E860EB802E816078401C60700548007849
:10ACE000002801D1FFF7B6FF0020F8BD0420F8BD11
:10ACF0005C270020A020002010B50D4C14212078E6
:10AD0000484301190020091DFEF76CFE2078FFF76B
:10AD1000BDFF6078401E60702078401CC0B220707B
:10AD20000A2801D100202070002004F033FD10BD5E
:10AD30005C270020F8B52348C16800293ED00E6882
:10AD400021494C680769C078E11B0D022D0AED1CF2
:10AD5000002814D101201D4A000450601B4A403ACB
:10AD600050601B49400008601A4908601A490120D8
:10AD700008602F20FDF7BEF912490120C870B542C6
:10AD800000D23546E81900020F4B000A4033186024
:10AD90000D4A5168001B091B0902090A0002000A3A
:10ADA000C91C814209D9506818602F20FDF7A2F90B
:10ADB00001200749400480390860F8BD04F096FB83
:10ADC000F8BD0000C82000200015014040130140DC
:10ADD00080E200E000E100E000100140F8B5064626
:10ADE000108814468446801D0D46984201D90C20D7
:10ADF000F8BD32880720062AFAD31927FF01184B1D
:10AE0000BA4201D99A42F3D171880629F0D3B942E6
:10AE100001D99942ECD19A4203D0994201D08A4299
:10AE2000E6D805216046295420881221401C80B2B2
:10AE3000208029542088401C80B22080411930880D
:10AE400005F074FC2188401880B220804119708878
:10AE500005F06CFC2188401820800020F8BD00001F
:10AE6000FFFF000010B500221146FEF78DFD10BD5A
:10AE7000F8B5164801F034F9144D00260C3D144C79
:10AE8000002807D0616900291CD001206A46107093
:10AE9000684616E02878002805D06169002911D09D
:10AEA000684606700DE0687800280DD0A168094852
:10AEB00000220068FFF714F8002803D0A1690029D8
:10AEC00000D088472E70F8BD6168F0E7542000205C
:10AED000F8260020EC0D02000E494868C005C00DA0
:10AEE00016D0103840B2002807DA0207120F083ACD
:10AEF000920892005118C96904E08108064A890045
:10AF0000891809688007C00EC1400806800F704785
:10AF10000420704700ED00E000E400E070B5204D33
:10AF200000241420604340190069002807D0641CE5
:10AF30000E2CF6D31B481A49C06898390CE014202F
:10AF400060434019002105F011FBA0B270BDF088EC
:10AF50004004400C0F2821D00A224243561832895F
:10AF60000E2AF4D0F288D20BF1D10A2250434018B5
:10AF700004890E2C04D3002211461046FEF704FD6E
:10AF80000E203081142060434519284600F00CF84B
:10AF90002846002105F0EAFA204670BD0E2070BD5B
:10AFA0006C2C00204021002010B5040009D020693D
:10AFB000002803D002F020FC00202061204605F08C
:10AFC00096FA10BD10B5134C207900071FD46069A4
:10AFD000401C6061E068002801D0042004E001F01A
:10AFE000B1F8002803D0022004F03EFD10BD206916
:10AFF000002809D06068C10701D00320F4E70121CF
:10B00000084360600020EFE7FFF712FE10BD04F078
:10B010001FFD10BDA020002010B5084841680A0798
:10B0200008D48A0702D5012211434160022004F0AE
:10B030001BFD10BD04F00CFD10BD0000A020002081
:10B04000F0B58446046840682209654B42401A40C6
:10B050001301634050401A0C424092B25040120417
:10B060005A4083085F4C534023409C005A40444060
:10B07000200A5D4B504018400302424063401F20AD
:10B08000C3411046594C58402040424043401F2085
:10B09000C241002618460424E0410C684440A00642
:10B0A000050E5348A7094059FC25864651482F40B4
:10B0B000C75970460743A002BE46800E87004E481F
:10B0C000A400C05977463843A40EA7004B4CE7595B
:10B0D0004C6807435C40BE46A006070E4848C0596E
:10B0E000774638438646A70946482F40C7597046D9
:10B0F0000743A002BE46800E87004348A400C05903
:10B1000077463843A40EA700404CE459384F044317
:10B11000624010460424E0418C684440A006000EC2
:10B120003858A709864633482F40C7597046074309
:10B13000A002BE46800E87002F48A400C059774663
:10B140003843A40EA7002D4C761CE759CC68074362
:10B150005440BE46A006070E29481031C059774614
:10B160003843A7092F40274DEF590743A002800E0F
:10B1700085002548A4004059A40EA500234C38435F
:10B18000645904436340082E84DB0120C341104608
:10B19000164958400840424043400120C241100A2D
:10B1A00011495840084001025140434088080D4A67
:10B1B00058401040434080004840190C414089B23B
:10B1C0000A045A4048401109054B41401940484083
:10B1D000090151406246116061464860F0BD0000BF
:10B1E0000F0F0F0F33333333FF00FF00AAAAAAAAB1
:10B1F0002C1502002C1302002C1102002C0F02004F
:10B200002C1602002C1402002C1202002C1002003A
:10B21000F7B5514D8E46C2B000212E46703E34AA7D
:10B220006B5C5C07DB08240FC35C345B234000D0FD
:10B2300001235354491C3829F2D3002370460128B6
:10B2400012D05900481C8400002206A802518D002B
:10B2500042514148A4463830C75C34AC26A8BE18D9
:10B260001C2E05D2A65D06E00F20C01A4100E9E7BA
:10B27000A619203E36798654521C1C2AEFD31C2274
:10B28000BE18382E01D2A65D02E0A619203E3679FE
:10B290008654521C382AF3D32F4C00224834A65C23
:10B2A000865D002E08D02C4F910006AE603F765987
:10B2B0007F583E4306AF7E51A618367E815D002939
:10B2C0000AD0664606A98E59234F9100603F7F58E9
:10B2D00061463E4306AF7E50521C182ADFD35B1CEA
:10B2E000102BABD33F270024BF01449906A8BD0013
:10B2F00002463F2316689B041E40B3010B6016688C
:10B30000001D3E40B60233430B600668641CB60A5B
:10B310002E4033430B6006883605B60E33430B6070
:10B320003F261368360333401B034B6012789206A6
:10B33000920A13434B60026812092A4013434B6080
:10B340000278001D9206920E13434B600831102CB8
:10B35000CED345B0F0BD0000B40E020010B50E49CA
:10B3600000234A788C78A24212D0521CD2B24A7082
:10B37000022A00D14B704A78074B920018339A5832
:10B380000260086910180002000A0861012010BD5F
:10B390000360002010BD0000C820002001490120EA
:10B3A000C87070479021002010B505498868496928
:10B3B00048430449FCF7CAFE7D21C900401810BD6E
:10B3C0009021002040420F0000B585B0694600F092
:10B3D000E9F8002802D0002005B000BD6846FEF75D
:10B3E0000BFE0120F8E70000EFF31080C107C90F42
:10B3F00072B606484268521C4260012A02D190048B
:10B40000034A1060002900D162B67047382100203D
:10B4100080E100E0EFF31080C107C90F72B6064863
:10B420004268521E426003D10120044A8004106029
:10B43000002900D162B670473821002000E100E009
:10B44000F8B5144C2078002823D11348002708258C
:10B450000146476118311426856042C0083800F063
:10B460005FF80D48B830014647611831856042C029
:10B47000083800F055F8012208499004086008498E
:10B480000868FF231B04984303239B0518430860A7
:10B490002270F8BD38210020642A002000E100E07D
:10B4A00010E400E010B5084800F048F8002805D086
:10B4B0000548B83000F042F8002803D101200349C4
:10B4C0008004086010BD0000642A002000E200E053
:10B4D00010B5002807D001780B00FDF7EDFF050837
:10B4E0000606060616000E2010BD094A01E0084AAD
:10B4F000B8320146104600F07FF80028F4D1012050
:10B50000044980040860002010BD072010BD000021
:10B51000642A002000E200E0C1680069081A704750
:10B52000826820211346491ECB40DB07FAD0012256
:10B530008A400021C1608260016170470169C06872
:10B54000814201D1012070470020704710B50022D0
:10B5500000F001F810BD70B50B000CD0EFF31081B6
:10B56000CC07E40F72B6C56801696D1A954204D81C
:10B57000002C00D162B60E2070BD89188268056863
:10B58000521E114042685143491945691846002D21
:10B5900001D0A84701E0FCF740FE002C00D162B6C4
:10B5A000002070BD70B50B460446EFF31080C50750
:10B5B000ED0F72B6E1682069884204D1002D00D1F8
:10B5C00062B60E2070BD002B0ED0A1686268491EC5
:10B5D000084021685043411866691846002E01D082
:10B5E000B04701E0FCF719FE2069401C2061002DE6
:10B5F00000D162B6002070BD70B5044600290DD0A0
:10B60000EFF31080C507ED0F72B6A26820698318AA
:10B61000E068834207D1002D02D002E00E2070BD09
:10B6200062B6042070BD521E104062682368504309
:10B63000C0186369002B01D0984701E0FCF7EDFDCD
:10B64000E068401CE060002D00D162B6002070BDB3
:10B65000F0B5184D0646686885B0002827D1164F0A
:10B660002C68002C23D02068801B6438B8421ED977
:10B6700001206946087060680190E06803900296B6
:10B680006846FFF725FF002811D1206928600020B7
:10B690002061A0680028E3D0216809182160891B77
:10B6A0006439B942F8D82046FEF70EF8D8E705B05D
:10B6B000F0BD000084210020FFFFFF7F10B50028AF
:10B6C00003D0112802D0FEF7A9F910BD02480822C4
:10B6D00041681143416010BDA020002010B51C4CF2
:10B6E000217820464068012906D0022929D0032963
:10B6F00012D1000717D513E0000711D41548142202
:10B70000017851430818C188A28B891A0904090CD1
:10B71000C18002D004F060F910BDFFF7EDFA10BD52
:10B7200001F058F810BD6069401C606100F00AFD2E
:10B73000002803D0207804F02DF810BDFFF778FA28
:10B7400010BD6078044980000858804710BD000093
:10B75000A02000205C270020300E020010B528DF5A
:10B76000FFF7ACFF10BD10B529DFFFF7A7FF10BD35
:10B770003EB569461120087211480446FCF771FD78
:10B7800082B2214602A87CDF002803D000221146A5
:10B79000FEF7FAF8002000901022694601900A8016
:10B7A0003C224A808880FF209130C88068467ADF3A
:10B7B000002803D000221146FEF7E6F83EBD000047
:10B7C000B0250020F8B50F460646FFF70DFE174CD2
:10B7D0001748002F0ED06188B1420BD121880F2964
:10B7E00008D20A225143415AB14203D1FFF712FE57
:10B7F0002088F8BD2189E2688DB209E0AA4203D110
:10B80000FFF708FE0F20F8BD091889884D046D0C5C
:10B8100029460A235943435AB342EFD1002F01D09E
:10B8200066802580FFF7F6FD2846F8BD4021002000
:10B83000D42B0020F1B501210098FFF7C3FF484E3B
:10B84000484D04460F2825D1B08984B203E04C044A
:10B85000640C0F2C36D020460A2148434719F9883A
:10B86000CA0BF4D121460A235943009A6A5240195F
:10B8700080884004400CB8800020788038890E28E9
:10B8800008D014214843374998314018FFF78CFB02
:10B890000E203881F068844216D0B06884421FD0F0
:10B8A0000A206043401981880A224904490C514307
:10B8B0004919CA88C088D20BD2034004400C024305
:10B8C000CA800DE02046F8BD0A2060434019C188B7
:10B8D0004904490CF1608188C90BC9030F3181808B
:10B8E000B1688C4229D00A2060434019C2885204B2
:10B8F000520C0F2A0AD00A235A435719BA88838850
:10B90000D20BD2035B045B0C1A43BA80C2884B048F
:10B91000D20BD2030F32C28082885B0CD20BD203CF
:10B920001A4382800A2041434819C1886204C90B26
:10B93000C903520C1143C180B460B0680A21484366
:10B940004019C188C90BC9030F31C180F0680A21B1
:10B95000484340198188C90BC9030F318180B1E781
:10B9600040210020D42B002070B514460D46064619
:10B97000032901D3072070BD002C04D0144886424F
:10B9800003D1102070BD0E2070BDFFF72DFD0021EA
:10B990003046FFF717FF0F2807D00E49002D08D0BB
:10B9A000012D0BD0FFF736FDE4E7FFF733FD05204F
:10B9B00070BD0A2250434018C08803E00A22504359
:10B9C00040188088C00B2070FFF724FD002070BD58
:10B9D000FFFF0000D42B0020F7B582B017460D46BC
:10B9E000032913D243490298884202D1102005B09E
:10B9F000F0BD0121FFF7E6FE04462846FE033E4D5A
:10BA0000002805D0012814D0022823D00720EEE713
:10BA10000F2C05D10298FFF70DFF04460F285DD0CB
:10BA20000A2044436019C1884904490C3143C1804C
:10BA30005EE00F2C05D10298FFF7FCFE04460F28AC
:10BA40004CD00A204443601981884904490C314391
:10BA500081804DE0284E9836002F0DD00F2C47D016
:10BA60000A204443601900890E2841D0142148431C
:10BA7000801904F039FD3BE0002701A8019701F08F
:10BA8000EDFD00282AD000231A460097029901985C
:10BA900001F052FE070004D0019801F0ADFE3846D7
:10BAA000A5E70F2C06D00A204443641920890E28EC
:10BAB00004D008E0019800F0AFFC19E0FFF72EFA7F
:10BAC00020810E280AD080B21421484380190169D0
:10BAD000002905D0019801F08FFE03E0042086E7DD
:10BAE00001990161208914214843801904F0FFFC69
:10BAF00000207CE7FFFF0000D42B002010B586B0AB
:10BB000004246B461C7098809971DA716846FFF7BF
:10BB1000DFFC06B010BD000070B50C00054607D074
:10BB20000020206060601848854203D1102070BD5D
:10BB30000E2070BDFFF758FC00212846FFF742FE9B
:10BB40000F281CD00A2148431049451868882080D6
:10BB500028890E280FD00D4E14214843983680199D
:10BB6000006901F075FE002805D02889142148439A
:10BB7000801900696060FFF74DFC002070BDFFF781
:10BB800049FC052070BD0000FFFF0000D42B002001
:10BB9000F8B50D00044604D01E48844203D110209D
:10BBA000F8BD0E20F8BD01212046FFF70BFE0F283F
:10BBB00004D12046FFF73EFE0F2829D00A21484332
:10BBC0001549461834890E2C05D1FFF7A7F904460C
:10BBD0000E281DD0348104F08FF901460E4F142039
:10BBE00044439837E419204604F0C0FC288870804C
:10BBF0002069002801D001F0FFFD686801F028FEEF
:10BC0000308914225043C019696801610020F8BDD1
:10BC10000420F8BDFFFF0000D42B0020F8B5044637
:10BC2000FFF7E2FB204600F05BF8040003D0FFF7CB
:10BC3000F1FB2046F8BD0020184A01461423434377
:10BC40009B18401C19610E28F8D3144A0020144D8B
:10BC5000983A0E240A234343D5529B18471E598015
:10BC60007F041C817F0CDF80471C7F047F0C401CFD
:10BC70009F800F28EED30B48C4608160D088C00B32
:10BC8000C0030F30D08005480C388188C90BC90328
:10BC90000F318180FFF7BEFB0020F8BD6C2C002027
:10BCA000FFFF00004021002030B585B0040013D014
:10BCB000022069460870094801900294204601F06C
:10BCC000C7FD6846FFF704FC050002D0204601F0DE
:10BCD00093FD284605B030BD0E20FBE719C40100D6
:10BCE0000749084A10B54118914201D3072010BDF9
:10BCF00001210322C90204F02BFC002010BD00002A
:10BD000078ECFFFF79739303F1B5002082B0014610
:10BD100000900298114D01700024142026464643DD
:10BD20007019074604F0ECFB002811D03869002890
:10BD30000ED002980078002805D0A9590098091A59
:10BD40000748814204D9029901200870A85900903F
:10BD5000641C0E2CE1D30098FEBD00006C2C00206A
:10BD6000FFFFFF7F10B50C460E49884201D110201D
:10BD700010BD0121FFF726FD0F2810D00A214843EE
:10BD80000949401800890E2809D014214843064962
:10BD900098314018214604F0BAFB002010BD052060
:10BDA00010BD0000FFFF0000D42B002010B50C4692
:10BDB0000E49884201D1102010BD0121FFF702FD7C
:10BDC0000F2810D00A2148430949401800890E283D
:10BDD00009D014214843064998314018214604F0FF
:10BDE000A5FB002010BD052010BD0000FFFF0000D6
:10BDF000D42B002010B50C460E49884201D11020EA
:10BE000010BD0121FFF7DEFC0F2810D00A214843A6
:10BE10000949401800890E2809D0142148430649D1
:10BE200098314018214604F0C9FB002010BD0520C0
:10BE300010BD0000FFFF0000D42B0020F7B5002646
:10BE400082B03746244D254C01E00E38A080A088F2
:10BE50000E28FAD21421484340190169002931D033
:10BE600004F04EFB00282DD0A088142148432A5806
:10BE70000299891A1A4A914224D8002269460A7006
:10BE80004019029A04F0B0FB69460878002819D0DE
:10BE9000A088142148434019006901F0D9FCA0880A
:10BEA00014214843401901690398B2008150049855
:10BEB000761C0068B04205D1A088401CA0800020FC
:10BEC00005B0F0BDA0887F1C401CA0800E2FBED303
:10BED00004980660F3E700006C2C0020402100204D
:10BEE000FFFFFF7F70B51B4C207900072ED41A4846
:10BEF0001422017851430D182E6902F005FC014609
:10BF0000E8882A89761E80188019FCF71FF92169B4
:10BF10000025002909D06169814206D1E560606889
:10BF200001210843606000200AE000F00BF90028BE
:10BF300002D00220E56003E02069002803D003203E
:10BF400003F092FD70BDFEF773FE70BD03F080FD3F
:10BF500070BD0000A02000205C270020F8B51E4C1A
:10BF60002078002837D02069002807D00026E06814
:10BF7000002805D00025002E04D013E00126F6E7A6
:10BF80000125F8E7684651DF052806D0002806D0CD
:10BF900000221146FDF7F8FC04E0012602E02169C9
:10BFA00000988847002D12D1608869460880A068F3
:10BFB00061DF052806D0002806D000221146FDF7D3
:10BFC000E3FC04E0012502E0E168A0688847002E58
:10BFD000D8D0002DCFD0F8BDE820002010B52549DD
:10BFE0000220FDF7DFFC002803D000221146FDF7F8
:10BFF000CBFC072002F096F9032002F093F9082009
:10C0000002F090F9092002F08DF90E2002F08AF971
:10C01000182002F087F9172002F084F90C2002F0B2
:10C0200081F91548FDF72AF88121C901134C002830
:10C0300001D0A16000E0E1601148FDF71FF811494F
:10C04000002801D0A16000E0E1600F48FDF716F87C
:10C050000E49002801D0A16000E0E1600C48FDF726
:10C060000DF809214902002801D0A16010BDE1604E
:10C0700010BD0000C8220020003F00200005005035
:10C08000043F002008000001083F0020000180005C
:10C090000C3F00200121814003484068014201D04B
:10C0A000012070470020704770200020012181404E
:10C0B00003484078014201D00120704700207047BA
:10C0C00070200020014610B501208840FDF78EFF4A
:10C0D00010BD01218140880700D001207047000079
:10C0E000418805480288914204D34088814201D8A2
:10C0F00001207047002070474C2000201048018C20
:10C10000C9B2012917D1818C090714D1018D090603
:10C110000A0F03D1828D1206120F0ED0090F0129CA
:10C1200003D1828D1206120F07D0032903D1808D0F
:10C130000006000F01D0002070470120704700006A
:10C14000C00F00F070B50E481422017851430C184E
:10C15000256902F0D9FA0146E08822896D1E80180F
:10C160004019FBF7F3FF07494A69824206D382422E
:10C1700002D10869002801D0002070BD012070BDE7
:10C180005C270020A020002001218140880400D0ED
:10C1900001207047800701D00020704701207047C0
:10C1A00030B51588EC1C9C4201D90C2030BD02240E
:10C1B0004C5513881C255B1C9BB21380CD541388EF
:10C1C0005B1C9BB21380012807D0022807D00328EC
:10C1D00007D0042807D0072030BD002004E001204C
:10C1E00002E0CC5401E00320C8541088401C1080A9
:10C1F000002030BD70B506461D4800242546006865
:10C20000FCF732FF002800D001241A480068FCF730
:10C210002BFF002801D00220044317480068FCF7D8
:10C2200023FF002801D00420044314480068FCF7D1
:10C230001BFF002801D008200443002E01D0022556
:10C2400002E0002C00D101250D48C1788D4209D0B3
:10C25000C570022D07D0012D07D000220121094809
:10C26000FDF70AFC70BD6422F8E70522F6E700003E
:10C27000003F0020043F0020083F00200C3F00202A
:10C2800000200020480D0200F8B52C49C8680A6952
:10C290000C780F7989688646944600913EE00099B3
:10C2A000E20055182A7836E0182353436968521C77
:10C2B000C918AB78D2B2934200D100220B78022B7E
:10C2C00002D0032B27D123E04E680346014603E04A
:10C2D000B14204D00B46C96900291CD0F8E70029F7
:10C2E00019D08B4208D1C069002805D1144F01260E
:10C2F000BE600026B44601270E68C969D9610029CD
:10C3000009D00B689B190B6005E00174C06900E05F
:10C3100000210028F9D169789142C5D12146641ED7
:10C32000E4B20029BBD1054962460A61C8600F71B9
:10C33000704501D00120F8BD0020F8BDC8200020C4
:10C3400000100140F8B5044631480026C16800914C
:10C3500007784EE02E48F90080680D1843E0002C65
:10C3600002D02046E4691FE02878182141436A681A
:10C37000401CC0B251182870AA78904200D12E708B
:10C380000A784868012A30D1027C002A2DD18A68B7
:10C390004260CA6882600A69C260496981611C4959
:10C3A0000979002900D04660194943680A699C460A
:10C3B000991A0902174B090A994202D28268891810
:10C3C00007E06146511A09028268090A8A4202D9C5
:10C3D000511A016000E00660466001218660017428
:10C3E000C66103F057FD002CB9D1287869788842DE
:10C3F000BAD138467F1EFFB20028ABD10448C168CD
:10C400000098814201D00120F8BD0020F8BD000055
:10C41000C8200020FFFF7F007CB5054601F048F9E9
:10C4200004002BD0E079A179000208436946088016
:10C43000019560792179000208430121FFF7C2F9D3
:10C440000F280FD00A2148430E49401840886946FA
:10C4500008800D49884202D1C820694601E069463A
:10C46000401C088068460088A071000AE07160796D
:10C470002179000208436946FFF78AFB284601F04C
:10C48000BBF97CBDD42B0020FFFF0000B24F8EB063
:10C49000B0483860FFF7A2FD03F002FFFEF7C6F9CF
:10C4A000AE4871DFAE4864220190262103926846AF
:10C4B00001721123042104930175059800900299DB
:10C4C000019802F027FF002803D000221146FDF753
:10C4D0005BFAFBF73BFFA3480124C4600321C903B7
:10C4E00041608168214381609F480460A0499F4862
:10C4F0000860FFF73DF99F480090002569469E4877
:10C50000FEF7CCF8002803D000221146FDF73CFAD4
:10C51000FDF704FA1C216846FBF798FE0520C003CE
:10C5200001900F20000402900095032168460173DA
:10C53000C581057491480590914806906846FDF7BD
:10C54000F7FF002803D000221146FDF71DFAFCF783
:10C55000A1FC0320FDF7FCFE002803D000221146B9
:10C56000FDF712FA874B002201218748FCF73FFDB7
:10C57000864B002201218648FCF739FD854B0022BD
:10C5800001218548FCF733FD844B002201218448BA
:10C59000FCF72DFDFEF77EF9FCF79AF904F0CCF8D4
:10C5A000012002F02DFF002803D000221146FDF7E4
:10C5B000EBF90121084602F00FFF002803D000220A
:10C5C0001146FDF7E1F9FF20F53001F02DFA75492C
:10C5D0003720FBF735FF614E0C3E002809D0347040
:10C5E00032220123114670480094FCF77AFD0220A4
:10C5F00009E035700A2032220090012311466A4872
:10C60000FCF76FFD0520009001236422322167486A
:10C61000FCF767FD584866492830FCF793FDFDF7A5
:10C62000C7FC554863494030FCF78CFD5F4F5049CB
:10C630004E480860484801684648C04381420BD1D3
:10C64000787B012808D0BFF34F8F5C485A49C160FE
:10C65000BFF34F8F00BFFDE7FBF7D0FE48DF002898
:10C6600003D000221146FDF78FF9FCF78FFBFEF790
:10C6700075F8FCF70DFE3078002813D13E482830BD
:10C68000FBF7E6FF00280DD146493720FBF7D8FE1F
:10C69000002801D0347000E0357037484449283014
:10C6A000FCF750FD07A802F0E9FD002822D16846FA
:10C6B000007F002803D0012819D0022817D108A82C
:10C6C000007A092813D1099800F01AFD00280ED12C
:10C6D000099800F021FD6846008C0922384902F0D3
:10C6E0009BFE002803D000221146FDF74DF907A854
:10C6F00002F000FE2448407800280CD124484078FD
:10C70000002808D124484078002804D11A48294933
:10C710004030FCF717FD18484030FBF799FF002820
:10C7200085D1787B012807D0052000900123642261
:10C7300032211E48FCF7D5FC042222A12348FBF736
:10C740006CFD23481B4904700B484030FCF7FAFC91
:10C750006DE70000A5A5A5A5FC3F00200C2000204A
:10C76000D6BE898E00050140000001403546526E5C
:10C77000000601409DE30100CC240020C9E4010033
:10C7800065AE0100D9A801006C25002069A901004F
:10C7900078250020F9A9010084250020BDE50100CD
:10C7A00090250020500D02003C250020542500203B
:10C7B000B80B0000102700000400FA0500ED00E0AF
:10C7C000C82500203132333400000000AC250020A1
:10C7D0001520002010B504480822416891434160AB
:10C7E000007802F0D7FF10BDA020002070B51446DD
:10C7F00082880E4605462088111D4118921C9942D8
:10C8000001D8FE2A01D90C2070BD521C3254208858
:10C81000FF21401C80B2208031542088401C80B20F
:10C8200020808119288803F081FF2188401880B278
:10C830002080AA88002A09D0A968002908D0801978
:10C84000FBF7EBFC2088A98840182080002070BDF1
:10C85000072070BDFEB5054600680E468446C0053B
:10C86000870ED0001446002A34DD69685317C918B2
:10C8700063461B182B606960834201D2491C6960C2
:10C88000284618300190002F1BD0B818402801DD31
:10C890004020C21BE819314618300092FBF7BDFC5E
:10C8A000009AB818402815DBB618A41A2846019932
:10C8B00000F052F805E03146284600F04DF8403CC3
:10C8C0004036402CF7DA002C04D02246314601983D
:10C8D000FBF7A3FCFEBD00007CB50D46044600221C
:10C8E00069469008800020589307DB0ED840885492
:10C8F000521C082AF5DB20883721C008081A820656
:10C90000920E0B492046521CFFF7A4FF08226946ED
:10C910002046FFF79FFF00229008800000198068E2
:10C920009107C90EC840A854521C102AF4DB7CBDE4
:10C93000301702000021416001600549816005490E
:10C94000C1600349C94301610249C943416170475C
:10C950000123456789ABCDEFF0B50446AFB08068E1
:10C960000290E5682069039060690090FE480078B5
:10C97000002807D0880718D040221FA8FBF74DFCDD
:10C980001FA912E00B461FA900205E781A78360214
:10C9900092199E78DF7836043F06F61987009619BB
:10C9A000401C1B1DCE511028EFDB039A2846104077
:10C9B000009AAA431043ED4A83180A680298049229
:10C9C00010181D9218181922D0414219039B1046C5
:10C9D000284093431843E64BC6184868009B0C90C8
:10C9E0001C90C01830181423D841831818462E46BE
:10C9F00010409E433043DF4E87198868039E0590A0
:10CA0000801938180F26F041C618304617461840CE
:10CA1000B7433843D84FC719C86811904019381820
:10CA20000A25E841801905461F46354087433D43A6
:10CA3000D24FEF190D690B95AA18BA18169519253A
:10CA4000EA4115182A4637460240AF433A43CC4FD5
:10CA5000D7194A690E921B92D218BA181423DA41D8
:10CA60005219134607462B4097433B43C54FDF19E6
:10CA70008B6906931A939B19FB180F26F3419B1899
:10CA80001E462F4616409F433E43BF4FF719CE69BF
:10CA90001396301838180A26F041C0180646174673
:10CAA0001E4087433E43B94FF7190E6A0896751921
:10CAB0007D191926F5412F183D461E460540BE43F7
:10CAC0003543B34EAE194D6A0795AA181595B2189D
:10CAD0001425EA41D619324605463A40B5432A4361
:10CAE000AC4D55198A6A0F921992D218AA180F23C1
:10CAF000DA41921913463D46334095432B43A64DE8
:10CB00005D19CB6A0A931818189328180A23D8417C
:10CB10008518284633461040AB4318439F4BC31833
:10CB2000086B0990C01918181923D84143191846E1
:10CB3000174628409F433843994FC719486B84468E
:10CB4000801938181426F041C7183E4628461E4062
:10CB5000B843064393483618886B0D90129080189E
:10CB600030180F22D041C219104638401E46964355
:10CB700006438D483618C86B109086464019301809
:10CB80000A21C84181180D4610463940B843014377
:10CB9000864E1C988919C01808181B21C8414019D5
:10CBA00003462946134091430B43814959181A9B68
:10CBB000DB19C9181723D9410E18374603462E40F2
:10CBC000AB431E437B49189B71189A18891812228F
:10CBD000D141CA1913463E46024086437649324344
:10CBE00056181D9A511971180C22D141CD18294699
:10CBF0001A463940BA431143704A8E181B9A1018CE
:10CC000030181B21C841411908462A4618409A434A
:10CC10006B4E02439019199AD21980181722D041ED
:10CC200047183E4608462E40A8430643654A7046CC
:10CC3000B618C01830181222D041C31918463A4607
:10CC400008408A431043604A821816984019101809
:10CC50000C22D041C21810461D463840BD4328431F
:10CC60005A4D4019159D691840181B21C84181185B
:10CC70000846154618409D432843554D0E46451914
:10CC800012989643C01928181725E8414018054600
:10CC9000154035434F4EAE19119DEB18F318122570
:10CCA000EB411B181D4606460D408E4335434A4E48
:10CCB0006144AE19089DAA18B2180C25EA41D21891
:10CCC00015461E46054086433543444EAE1971183D
:10CCD0001B25E94189180D4616461D409E433543E4
:10CCE0003F4EAE19059D281830181725E841401809
:10CCF00005460E461540964335433A4EAE19139DF0
:10CD0000EB18F3181225EB411D182B4606460B4075
:10CD10008E433343344E9E19099B9A18B2180C2344
:10CD2000DA410E9B5219591813466B4043402F4E5F
:10CD30009B19C9181C23D941089B891818180B4640
:10CD400053402B4E6B409B19C0181523D8410A9BAA
:10CD500040185B1905464D40264E5540AD195B19EC
:10CD60001025EB411B1847E02C17020078A46AD766
:10CD700056B7C7E8DB702024EECEBDC1AF0F7CF5FF
:10CD80002AC68747134630A8019546FDD898806982
:10CD9000AFF7448BB15BFFFFBED75C892211906B6C
:10CDA000937198FD8E4379A62108B44962251EF639
:10CDB00040B340C0515A5E26AAC7B6E95D102FD6CF
:10CDC0005314440281E6A1D8C8FBD3E7E6CDE121A4
:10CDD000D60737C3870DD5F4ED145A4505E9E3A905
:10CDE000F8A3EFFCD9026F678A4C2A8D4239FAFF0B
:10CDF00081F6718722619D6D0D9DA44EAA181D4676
:10CE000045404D40AD1952190925EA410C9DD218F3
:10CE1000691815465D409E4E4540AD1949191C25BF
:10CE2000E9410B9D891828180D465540994E5D40E3
:10CE3000AD1940191525E841139D4018EB1805461A
:10CE40004D40954E5540AD195B191025EB410F9D96
:10CE50001B18AA181D4645404D40904E6144AD191F
:10CE600052190925EA41D21815465D408C4E4540BD
:10CE7000AD1949191C25E941049D891828180D464A
:10CE80005540884E5D40AD1940191525E841119D6A
:10CE90004018EB1805464D40834E5540AD195B19BF
:10CEA0001025EB41069D1B18AA181D4645407F4ED4
:10CEB0004D40AD1952190925EA41079DD21869184C
:10CEC00015465D407A4E4540AD1949191C25E9418A
:10CED000099D891828180D4655405D40754E7344CC
:10CEE000AD1940191525E841401805464D40724ED0
:10CEF0005540AD195B191025EB41059D1B18AA186B
:10CF00001D4645406D4E4D40AD1952190925EA4167
:10CF1000049DD2186918C5431543694E5D40AD198B
:10CF200049191A25E941139D89182818DD430D4335
:10CF3000644E5540AD1940191625E8410D9D401825
:10CF4000EB18D5430543604E4D40AD195B191125D3
:10CF5000EB410E9D1B18AA18CD431D435B4E454067
:10CF6000AD1952190B25EA41099DD2186918C5431C
:10CF70001543574E5D40AD1949191A25E941119DD8
:10CF800089182818DD430D43524E5540AD194019FC
:10CF90001625E8410F9D4018EB18D54305434E4E2A
:10CFA0004D40AD195B191125EB410C9D1B18AA18BA
:10CFB000CD431D43494E4540AD1952190B25EA4159
:10CFC000089DD2186918C5431543454E5D40AD19FB
:10CFD00049191A25E9418918DD430D43414E554051
:10CFE000AD19704440191625E841069D4018EB180C
:10CFF000D54305433C4E4D40AD195B191125EB411E
:10D000001B18CD431D43394E4540AD19624452199A
:10D010000B25EA410B9DD2186918C5431543344EC0
:10D020005D40AD1949191A25E9410A9D891828184A
:10D03000DD430D432F4E5540AD1940191625E841EB
:10D04000059D4018EB18D54305432B4E4D40AD19B7
:10D050005B191125EB41079D1B18AA18CD431D43F1
:10D06000264E4540AD1952190B25EA41A568D21844
:10D070006918A160E1688918E1602169C918216116
:10D080006169081860612FB0F0BD00000C38E5FD43
:10D0900044EABEA4A9CFDE4B604BBBF670BCBFBE5A
:10D0A000C67E9B28FA27A1EA8530EFD4051D8804A7
:10D0B00039D0D4D9E599DBE6F87CA21F6556ACC41B
:10D0C000442229F497FF2A43A72394AB39A093FC69
:10D0D000C3595B6592CC0C8F7DF4EFFFD15D8485E5
:10D0E0004F7EA86FE0E62CFE144301A3A111084E69
:10D0F000827E53F735F23ABDBBD2D72A91D386EB65
:10D1000010B5014606220348FBF7B2F8002800D00C
:10D11000102010BD20200020F8B505460026FFF79E
:10D12000EFFF002801D01020F8BDA8790A287DD192
:10D130004D480068FBF798FF002800D001264B48B7
:10D140000068FBF791FF0227002800D03E434848C3
:10D150000068FBF789FF002801D0042006434548FA
:10D160000068FBF781FF002801D008200643E8791A
:10D17000414CC0070BD0287AC107C90F3A48FBF7CA
:10D18000C7FF01003D4801D0A06000E0E060E87901
:10D1900080070AD5297A35483940FBF7B9FF0100E5
:10D1A000374801D0A06000E0E060E87940070BD587
:10D1B000297A042001402E48FBF7AAFF01003148DC
:10D1C00001D0A06000E0E060E87900070BD5297A83
:10D1D000082001402748FBF79BFF01002A4801D0A7
:10D1E000A06000E0E060294C0B20A071E0710020FD
:10D1F00020721D480068FBF737FF002803D0207A13
:10D2000001210843207219480068FBF72DFF002810
:10D2100002D0207A3843207215480068FBF724FFBB
:10D22000002805D0207A0421084300E019E020728C
:10D2300010480068FBF718FF002803D0207A082167
:10D2400008432072207AB0420BD01148407B01285D
:10D2500007D0012003466422009011460C48FBF7DA
:10D2600040FF0020A871F8BD003F0020043F0020CF
:10D27000083F00200C3F00200005005080400000C7
:10D28000080000010001800000120000C8250020F5
:10D290005425002010B505490B228A71CA71087205
:10D2A0000922012002F0B8F810BD0000C8250020B6
:10D2B00000B587B011236A461370507091706846AC
:10D2C00000F002F807B000BD70B5224D0446688832
:10D2D000214986B0884202D1204806B070BD204E58
:10D2E000B078002806D005A862DF0006000E04D042
:10D2F0001120F2E71948401EEFE76846007D00283C
:10D300000FD0B089694608800120887000228A8089
:10D310002178022911D007DC00290AD0012916D171
:10D320000BE00E48801CD8E711290FD012290ED12E
:10D3300003E0E0786946001D01E0052007E008826F
:10D3400004A8039402906888A6DFC6E70320694614
:10D35000F5E7000050210020FFFF00000230000030
:10D36000842D00201FB501920090684601720121B2
:10D3700081730C4981810C4A03A90120A0DF002898
:10D3800002D0032004B010BD0849094863DF00281B
:10D39000F8D1684600F0F6F80028F3D100F0A4FABE
:10D3A000F0E70000E4FE0000842D00205021002062
:10D3B00070170200F0B5054600885E4989B0502814
:10D3C00007D05D4A102879D0112800D1518009B0CA
:10D3D000F0BD5A48EA8883892C4620349A426ED19F
:10D3E000207800262135002805D001282FD00228DA
:10D3F00053D0F42172E06A782F7813023B438B42BA
:10D4000001D1F2216AE0E278211D184603F0D2FA38
:10D41000002816D168460670201D0290E178684603
:10D42000017368782A7801021143684681800121DE
:10D43000C18202F061FD0690684601F033FF0028CA
:10D4400002D02078F02149E02078802146E0E17880
:10D45000002902D001291ED10CE02079002801D03A
:10D46000012100E0002168782A780002104303F0CF
:10D4700045FC0DE0207929780028687804D0000266
:10D48000084303F0E1FB03E00002084303F0BEFBA6
:10D49000002811D1D8E7F32120E0E2781227002AF2
:10D4A0000ED0012AF7D1687829780002084369462E
:10D4B00003F0E0FB002814D02078A2E737E022E058
:10D4C00068782A78000210438842F5D069460E70C9
:10D4D00003F0F6FB002804D02078F121FFF7E8FEE6
:10D4E00075E76846077168782A7801021143684633
:10D4F0004171090A8171E178C1710178017201A855
:10D50000FFF7E2FE63E781888A4207D1217A20682B
:10D5100002F080FB606803F07BFA58E7018A8A42D8
:10D52000DED12178002900D0012181704FE7A88841
:10D5300050804CE7FFFF000050210020842D002088
:10D5400010B588B0172A02D9092008B010BD0A4BBF
:10D550000A4C5B88A3420DD000246B461C705870A7
:10D56000000A9870DA7001A8FAF757FE6846FFF7CC
:10D57000ABFEEAE70248E8E750210020FFFF000089
:10D580000230000070B500240546601C92B0000710
:10D59000000F08A9103008940870601C0007000FE5
:10D5A000103048708878F9263040801C88701C2123
:10D5B00001A8FAF74BFE694608791221084369462B
:10D5C000087108A8059404940294009406900878C1
:10D5D0000007000F103000090001401C0870487857
:10D5E0000007000F103000090001401C48708878C7
:10D5F000E72108404008400030406946801C8870A0
:10D60000144808A9007888740420694608862868A8
:10D61000099068680A90287A08A9087314210DA84F
:10D62000FAF714FE092069468887CC8710A908807C
:10D630000CA80D9009A811906846074B0E90188809
:10D640000DAA01A91B1DA2DF002800D0032012B0E3
:10D6500070BD000050210020842D002010B5124B19
:10D660000021EFF31082D207D20F72B65C5C002C5F
:10D6700002D0002A0CD00CE001245C54282359432A
:10D680000A4BC9180160002A00D162B6012010BD02
:10D6900062B6491C2929E4D3002211460420FCF774
:10D6A00073F9002010BD000000340020982D0020E8
:10D6B00070B501000ED008464A780930062A09D90B
:10D6C000252A07D80DE00378451A093D5E19951FF4
:10D6D000AE4201D9002070BD5D01EB1A18181F3051
:10D6E00000E0054C4378162BEDD1C37885781B02FA
:10D6F0002B43A342E7D170BDE4FE000070B50446A1
:10D70000FFF7D6FF002808D02246093290420DD0FC
:10D710000178491CCBB2002105E00B2070BD455CAF
:10D7200066187572491C9942F9D310460078C01DDD
:10D730006070002070BD0000FFB581B00A9D1F46DB
:10D74000060006D034460934172D04D9092005B047
:10D75000F0BD0E20FBE7304600F0A2F828460E3060
:10D760007070307800090001801C3070E81D207056
:10D77000162060700B48A070000AE07002982071BB
:10D78000000A60710398A071000AE071002D07D0B3
:10D79000002F05D020462A4639460830FAF73DFDCD
:10D7A0000020D4E7E4FE000010B50146821C40785A
:10D7B00009310B4B80180FE04A78162A05D1CA7838
:10D7C0008C78120222439A4201D0012010BD0A78BF
:10D7D0005401A21A51181F318842EDD8002010BD03
:10D7E000E4FE00000020034902460A54401C292898
:10D7F000FBD3704700340020134910B5401A28218C
:10D80000FAF7A4FC29281CD2EFF31081CC07E40F0F
:10D8100072B60E490A5C002A05D0521ED2B20A54D2
:10D82000002C09D009E0002211460820FCF7ACF8D2
:10D83000002C06D162B604E062B6002A01D00120B5
:10D8400010BD002010BD0000982D002000340020E5
:10D8500070B51149401A2821FAF778FC04462928A6
:10D8600001D3002070BDEFF31080C607F60F72B62B
:10D870000A4D285D002801D0FF2804D1002211465E
:10D880000420FCF781F8285D401C2855002E00D1AB
:10D8900062B6012070BD0000982D002000340020E9
:10D8A0001CB50446684671DF00280FD12078BF21DF
:10D8B0000840694609780622C907490E08432070C6
:10D8C00000A9E01C0131FAF7A8FC00201CBD10B52E
:10D8D0000446FFF769FF002802D02046FFF70EFF3D
:10D8E0002046FFF7DDFF10BD30B58FB01C21684624
:10D8F000FAF7ACFC684601781420014368460170D1
:10D90000002406940594019404940794407F012513
:10D910000007000F1030010909016846491C4177D2
:10D92000817FF9200140F720891C0140EF20014050
:10D930002943684681771248017808A8817005213B
:10D940006846018408A8047114210AA8FAF77EFC2D
:10D95000684605861B214486818607A80B9008A887
:10D960000A9009A80E900748064B00880C330AAAB3
:10D970006946A2DF002800D003200FB030BD0000B0
:10D9800050210020842D0020F8B50F460178144660
:10D990000546012902D16878002806D02088821C1B
:10D9A0009A422DD8012902D006E00720F8BD6978F7
:10D9B0004118891C994223D8181A801E86B26846DD
:10D9C00006802188B81C081869467DDF0028EDD143
:10D9D0002878022805D169460988B14201D8092171
:10D9E0000AE00821012805D16878B04202D86A46C9
:10D9F000108001E06846068068460088FE2801D94C
:10DA00000C20F8BD2288401CB8542088401C80B2ED
:10DA10002080395420886946401C2080098840189D
:10DA200020800020F8BD000031B5054C04E0401E08
:10DA300000902046FAF74EFB00980028F7D138BD39
:10DA4000E70300008207D30EFF229A408907090EE0
:10DA500010B5994000280BDA03071B0F083B9C0800
:10DA60000C4BA400E318DC6994430C43DC6107E031
:10DA70008408094BA400E418236893430B432360F4
:10DA8000C106C90E012088400449086004490860A5
:10DA900010BD000000ED00E000E400E080E200E0E6
:10DAA00000E100E070B5124D2879002801D008206F
:10DAB00070BD0F4900204039421E0B182033401C16
:10DAC000C0B21A702028F8D300242046FCF7C4FF07
:10DAD000641CE4B2082CF8D303210620FFF7B2FF40
